:0400000046EF02F0D5
:10020000004B45595041443A0000819081928184CD
:1002100081A80DEF01F00FEF01F019EF01F0330E9F
:100220003EEC02F081B817EF01F019EF01F012EF88
:1002300001F081AA1EEF01F020EF01F02AEF01F09A
:10024000360E3EEC02F081BA28EF01F02AEF01F001
:1002500023EF01F081AC2FEF01F031EF01F03BEF24
:1002600001F0390E3EEC02F081BC39EF01F03BEFBA
:1002700001F034EF01F081AE40EF01F042EF01F008
:100280004CEF01F0230E3EEC02F081BE4AEF01F08C
:100290004CEF01F045EF01F01200819081828194D2
:1002A00081A855EF01F057EF01F061EF01F0320E38
:1002B0003EEC02F081B85FEF01F061EF01F05AEF20
:1002C00001F081AA66EF01F068EF01F072EF01F032
:1002D000350E3EEC02F081BA70EF01F072EF01F0E2
:1002E0006BEF01F081AC77EF01F079EF01F083EF74
:1002F00001F0380E3EEC02F081BC81EF01F083EF9B
:1003000001F07CEF01F081AE88EF01F08AEF01F09F
:1003100094EF01F0300E3EEC02F081BE92EF01F05E
:1003200094EF01F08DEF01F01200818081928194B1
:1003300081A89DEF01F09FEF01F0A9EF01F0310ED0
:100340003EEC02F081B8A7EF01F0A9EF01F0A2EFB7
:1003500001F081AAAEEF01F0B0EF01F0BAEF01F0C9
:10036000340E3EEC02F081BAB8EF01F0BAEF01F0C2
:10037000B3EF01F081ACBFEF01F0C1EF01F0CBEFC3
:1003800001F0370E3EEC02F081BCC9EF01F0CBEF7B
:1003900001F0C4EF01F081AED0EF01F0D2EF01F037
:1003A000DCEF01F02A0E3EEC02F081BEDAEF01F044
:1003B000DCEF01F0D5EF01F01200F00E936E000EAD
:1003C0000F013B6F000E956EF80E3A17F80E94165B
:1003D0001BEC02F0800E36EC02F0010E036E020EF2
:1003E000046E00EC02F0C00E36EC02F095EC01F069
:1003F0004DEC01F005EC01F0F6EF01F000EF00F03C
:100400000CEF02F003C0F6FF04C0F7FF0800F55040
:100410003EEC02F0034A042A03C0F6FF04C0F7FFD3
:100420000800F5500009D8A418EF02F01AEF02F006
:1004300002EF02F01200380E36EC02F00E0E36EC2F
:1004400002F0010E36EC02F0060E36EC02F0800EE1
:1004500036EC02F0120082841A0E016EF80EE82EBD
:10046000FED7012EFCD700D082941200026E02C08B
:1004700083FF829082922BEC02F01200026E02C087
:1004800083FF828082922BEC02F01200000EF86E45
:0A049000020EF76E0001DDEF01F02F
:020000040020DA
:08000000FFFFFFFFFFFFFFFF00
:020000040030CA
:0E000000FF091F3CFFBD80FF03C003E003406B
:00000001FF
